:020000040000FA
:04000000803105281E
:0800080009003E2092010530C1
:10001000F200F30112202008F70020208C000728AE
:1000200063001028F30A0E30F100BD30F000F00B31
:100030001728F10B1528F20B1328F30B13280800CF
:10004000113077020318003477082D3EF700003096
:100050000318013E8A00770882001034003400340F
:1000600000340134013401340334033403340334E1
:100070000734073407340F340F340F346030510124
:100080008D008F01910192010630930041019E1372
:100090001D107E01B801C301CE01530194139013CA
:0C00A00040018C018D018E0190010800D0
:020000040001F9
:02000E008C3F25
:08001000FF3F9F3FFF1FFF3F70
:00000001FF
